{
  "contractName": "Election",
  "abi": [
    {
      "constant": true,
      "inputs": [
        {
          "name": "",
          "type": "uint256"
        }
      ],
      "name": "userRequest",
      "outputs": [
        {
          "name": "isExecute",
          "type": "bool"
        },
        {
          "name": "hashData",
          "type": "string"
        }
      ],
      "payable": false,
      "stateMutability": "view",
      "type": "function",
      "signature": "0x8840ccef"
    },
    {
      "inputs": [],
      "payable": true,
      "stateMutability": "payable",
      "type": "constructor",
      "signature": "constructor"
    },
    {
      "constant": false,
      "inputs": [
        {
          "name": "requestID",
          "type": "uint256"
        },
        {
          "name": "isExecute",
          "type": "bool"
        },
        {
          "name": "hashData",
          "type": "string"
        }
      ],
      "name": "createOrderRequest",
      "outputs": [],
      "payable": false,
      "stateMutability": "nonpayable",
      "type": "function",
      "signature": "0x1610e375"
    }
  ],
  "bytecode": "0x608060405233600160006101000a81548173ffffffffffffffffffffffffffffffffffffffff021916908373ffffffffffffffffffffffffffffffffffffffff1602179055506103f6806100546000396000f3fe60806040526004361061004c576000357c0100000000000000000000000000000000000000000000000000000000900463ffffffff1680631610e375146100515780638840ccef1461012f575b600080fd5b34801561005d57600080fd5b5061012d6004803603606081101561007457600080fd5b8101908080359060200190929190803515159060200190929190803590602001906401000000008111156100a757600080fd5b8201836020820111156100b957600080fd5b803590602001918460018302840111640100000000831117156100db57600080fd5b91908080601f016020809104026020016040519081016040528093929190818152602001838380828437600081840152601f19601f8201169050808301925050505050505091929192905050506101ee565b005b34801561013b57600080fd5b506101686004803603602081101561015257600080fd5b810190808035906020019092919050505061025c565b604051808315151515815260200180602001828103825283818151815260200191508051906020019080838360005b838110156101b2578082015181840152602081019050610197565b50505050905090810190601f1680156101df5780820380516001836020036101000a031916815260200191505b50935050505060405180910390f35b604080519081016040528083151581526020018281525060008085815260200190815260200160002060008201518160000160006101000a81548160ff0219169083151502179055506020820151816001019080519060200190610253929190610325565b50905050505050565b60006020528060005260406000206000915090508060000160009054906101000a900460ff1690806001018054600181600116156101000203166002900480601f01602080910402602001604051908101604052809291908181526020018280546001816001161561010002031660029004801561031b5780601f106102f05761010080835404028352916020019161031b565b820191906000526020600020905b8154815290600101906020018083116102fe57829003601f168201915b5050505050905082565b828054600181600116156101000203166002900490600052602060002090601f016020900481019282601f1061036657805160ff1916838001178555610394565b82800160010185558215610394579182015b82811115610393578251825591602001919060010190610378565b5b5090506103a191906103a5565b5090565b6103c791905b808211156103c35760008160009055506001016103ab565b5090565b9056fea165627a7a72305820bad855eedf99d4441ef3cab01e053222685b5fa8a1aa207b9eec935a449fdc530029",
  "source": "pragma solidity ^0.5.0;\n\ncontract Election {\n    struct UserRequest {\n      bool isExecute;\n      // Details of hash(request data), details can be reffer in the database\n      // Store the hash data here to be validated for the further usage\n      string hashData;\n    }\n\n    mapping(uint => UserRequest) public userRequest;\n    // chairman account, let airline deposit to become a member\n    address payable chairman;\n\n    // Constructor\n    constructor () public payable {\n        chairman = msg.sender;\n    }\n\n    // function register() public payable{\n    //     chairman.transfer(1 ether);\n    // }\n    function createOrderRequest(uint requestID, bool isExecute, string memory hashData) public{\n        userRequest[requestID] = UserRequest(isExecute, hashData);\n    }\n}\n",
  "sourcePath": "/Users/coda/Desktop/election/contracts/Election.sol",
  "compiler": {
    "name": "solc",
    "version": "0.5.0+commit.1d4f565a.Emscripten.clang"
  },
  "schemaVersion": "3.0.6",
  "updatedAt": "2019-04-28T19:23:45.222Z",
  "devdoc": {
    "methods": {}
  },
  "userdoc": {
    "methods": {}
  }
}