{
  "contractName": "Election",
  "abi": [
    {
      "constant": true,
      "inputs": [
        {
          "name": "",
          "type": "uint256"
        }
      ],
      "name": "airlineRequest",
      "outputs": [
        {
          "name": "",
          "type": "string"
        }
      ],
      "payable": false,
      "stateMutability": "view",
      "type": "function",
      "signature": "0x0a72ba9c"
    },
    {
      "constant": true,
      "inputs": [],
      "name": "chairman",
      "outputs": [
        {
          "name": "",
          "type": "address"
        }
      ],
      "payable": false,
      "stateMutability": "view",
      "type": "function",
      "signature": "0x87f7b975"
    },
    {
      "constant": true,
      "inputs": [
        {
          "name": "",
          "type": "uint256"
        }
      ],
      "name": "userRequest",
      "outputs": [
        {
          "name": "isExecute",
          "type": "bool"
        },
        {
          "name": "hashData",
          "type": "string"
        }
      ],
      "payable": false,
      "stateMutability": "view",
      "type": "function",
      "signature": "0x8840ccef"
    },
    {
      "constant": true,
      "inputs": [
        {
          "name": "",
          "type": "uint256"
        }
      ],
      "name": "airlineResponse",
      "outputs": [
        {
          "name": "",
          "type": "bool"
        }
      ],
      "payable": false,
      "stateMutability": "view",
      "type": "function",
      "signature": "0xba858cce"
    },
    {
      "constant": true,
      "inputs": [
        {
          "name": "",
          "type": "address"
        }
      ],
      "name": "member",
      "outputs": [
        {
          "name": "",
          "type": "uint256"
        }
      ],
      "payable": false,
      "stateMutability": "view",
      "type": "function",
      "signature": "0xe7d4539e"
    },
    {
      "inputs": [],
      "payable": false,
      "stateMutability": "nonpayable",
      "type": "constructor",
      "signature": "constructor"
    },
    {
      "constant": false,
      "inputs": [],
      "name": "register",
      "outputs": [],
      "payable": true,
      "stateMutability": "payable",
      "type": "function",
      "signature": "0x1aa3a008"
    },
    {
      "constant": false,
      "inputs": [
        {
          "name": "account",
          "type": "address"
        }
      ],
      "name": "unregister",
      "outputs": [],
      "payable": false,
      "stateMutability": "nonpayable",
      "type": "function",
      "signature": "0x2ec2c246"
    },
    {
      "constant": false,
      "inputs": [
        {
          "name": "requestID",
          "type": "uint256"
        },
        {
          "name": "isExecute",
          "type": "bool"
        },
        {
          "name": "hashData",
          "type": "string"
        }
      ],
      "name": "createOrderRequest",
      "outputs": [],
      "payable": false,
      "stateMutability": "nonpayable",
      "type": "function",
      "signature": "0x1610e375"
    },
    {
      "constant": false,
      "inputs": [
        {
          "name": "requestID",
          "type": "uint256"
        },
        {
          "name": "hashData",
          "type": "string"
        }
      ],
      "name": "request",
      "outputs": [],
      "payable": false,
      "stateMutability": "nonpayable",
      "type": "function",
      "signature": "0x8163ba11"
    },
    {
      "constant": false,
      "inputs": [
        {
          "name": "requestID",
          "type": "uint256"
        },
        {
          "name": "isExecute",
          "type": "bool"
        }
      ],
      "name": "response",
      "outputs": [],
      "payable": false,
      "stateMutability": "nonpayable",
      "type": "function",
      "signature": "0x97211746"
    }
  ],
  "bytecode": "0x608060405234801561001057600080fd5b5033600460006101000a81548173ffffffffffffffffffffffffffffffffffffffff021916908373ffffffffffffffffffffffffffffffffffffffff160217905550610afa806100616000396000f3fe6080604052600436106100a4576000357c0100000000000000000000000000000000000000000000000000000000900463ffffffff1680630a72ba9c146100a95780631610e3751461015d5780631aa3a0081461023b5780632ec2c246146102455780638163ba111461029657806387f7b975146103685780638840ccef146103bf578063972117461461047e578063ba858cce146104c5578063e7d4539e14610518575b600080fd5b3480156100b557600080fd5b506100e2600480360360208110156100cc57600080fd5b810190808035906020019092919050505061057d565b6040518080602001828103825283818151815260200191508051906020019080838360005b83811015610122578082015181840152602081019050610107565b50505050905090810190601f16801561014f5780820380516001836020036101000a031916815260200191505b509250505060405180910390f35b34801561016957600080fd5b506102396004803603606081101561018057600080fd5b8101908080359060200190929190803515159060200190929190803590602001906401000000008111156101b357600080fd5b8201836020820111156101c557600080fd5b803590602001918460018302840111640100000000831117156101e757600080fd5b91908080601f016020809104026020016040519081016040528093929190818152602001838380828437600081840152601f19601f82011690508083019250505050505050919291929050505061062d565b005b6102436106a5565b005b34801561025157600080fd5b506102946004803603602081101561026857600080fd5b81019080803573ffffffffffffffffffffffffffffffffffffffff1690602001909291905050506106fc565b005b3480156102a257600080fd5b50610366600480360360408110156102b957600080fd5b8101908080359060200190929190803590602001906401000000008111156102e057600080fd5b8201836020820111156102f257600080fd5b8035906020019184600183028401116401000000008311171561031457600080fd5b91908080601f016020809104026020016040519081016040528093929190818152602001838380828437600081840152601f19601f820116905080830192505050505050509192919290505050610827565b005b34801561037457600080fd5b5061037d610853565b604051808273ffffffffffffffffffffffffffffffffffffffff1673ffffffffffffffffffffffffffffffffffffffff16815260200191505060405180910390f35b3480156103cb57600080fd5b506103f8600480360360208110156103e257600080fd5b8101908080359060200190929190505050610879565b604051808315151515815260200180602001828103825283818151815260200191508051906020019080838360005b83811015610442578082015181840152602081019050610427565b50505050905090810190601f16801561046f5780820380516001836020036101000a031916815260200191505b50935050505060405180910390f35b34801561048a57600080fd5b506104c3600480360360408110156104a157600080fd5b8101908080359060200190929190803515159060200190929190505050610942565b005b3480156104d157600080fd5b506104fe600480360360208110156104e857600080fd5b8101908080359060200190929190505050610971565b604051808215151515815260200191505060405180910390f35b34801561052457600080fd5b506105676004803603602081101561053b57600080fd5b81019080803573ffffffffffffffffffffffffffffffffffffffff169060200190929190505050610991565b6040518082815260200191505060405180910390f35b60026020528060005260406000206000915090508054600181600116156101000203166002900480601f0160208091040260200160405190810160405280929190818152602001828054600181600116156101000203166002900480156106255780601f106105fa57610100808354040283529160200191610625565b820191906000526020600020905b81548152906001019060200180831161060857829003601f168201915b505050505081565b604080519081016040528083151581526020018281525060008085815260200190815260200160002060008201518160000160006101000a81548160ff02191690831515021790555060208201518160010190805190602001906106929291906109a9565b509050506106a08383610942565b505050565b6103e834101515156106b657600080fd5b34600160003373ffffffffffffffffffffffffffffffffffffffff1673ffffffffffffffffffffffffffffffffffffffff16815260200190815260200160002081905550565b600460009054906101000a900473ffffffffffffffffffffffffffffffffffffffff1673ffffffffffffffffffffffffffffffffffffffff163373ffffffffffffffffffffffffffffffffffffffff1614151561075857600080fd5b8073ffffffffffffffffffffffffffffffffffffffff166108fc6064600160008573ffffffffffffffffffffffffffffffffffffffff1673ffffffffffffffffffffffffffffffffffffffff16815260200190815260200160002054039081150290604051600060405180830381858888f193505050501580156107e0573d6000803e3d6000fd5b50600160008273ffffffffffffffffffffffffffffffffffffffff1673ffffffffffffffffffffffffffffffffffffffff1681526020019081526020016000206000905550565b8060026000848152602001908152602001600020908051906020019061084e929190610a29565b505050565b600460009054906101000a900473ffffffffffffffffffffffffffffffffffffffff1681565b60006020528060005260406000206000915090508060000160009054906101000a900460ff1690806001018054600181600116156101000203166002900480601f0160208091040260200160405190810160405280929190818152602001828054600181600116156101000203166002900480156109385780601f1061090d57610100808354040283529160200191610938565b820191906000526020600020905b81548152906001019060200180831161091b57829003601f168201915b5050505050905082565b806003600084815260200190815260200160002060006101000a81548160ff0219169083151502179055505050565b60036020528060005260406000206000915054906101000a900460ff1681565b60016020528060005260406000206000915090505481565b828054600181600116156101000203166002900490600052602060002090601f016020900481019282601f106109ea57805160ff1916838001178555610a18565b82800160010185558215610a18579182015b82811115610a175782518255916020019190600101906109fc565b5b509050610a259190610aa9565b5090565b828054600181600116156101000203166002900490600052602060002090601f016020900481019282601f10610a6a57805160ff1916838001178555610a98565b82800160010185558215610a98579182015b82811115610a97578251825591602001919060010190610a7c565b5b509050610aa59190610aa9565b5090565b610acb91905b80821115610ac7576000816000905550600101610aaf565b5090565b9056fea165627a7a72305820a381a1cf71b01f9e4cf0729f9b63b4ababd4883e5d8c21d428224c8a731f7ae70029",
  "source": "pragma solidity ^0.5.0;\n\ncontract Election {\n    struct UserRequest {\n      bool isExecute;\n      // Details of hash(request data), details can be reffer in the database\n      // Store the hash data here to be validated for the further usage\n      string hashData;\n    }\n    mapping(uint => UserRequest) public userRequest;\n    mapping(address => uint) public member;\n\n    // store requestID to its hashValue\n    mapping(uint => string) public airlineRequest;\n\n    // store requestID to it's executed or not\n    mapping(uint => bool) public airlineResponse;\n    // chairman account, let airline deposit to become a member\n    address public chairman;\n\n    // Constructor\n    constructor () public {\n        chairman = msg.sender;\n    }\n\n    // airline register\n    function register() public payable{\n        // at least deposit 1000 wei\n        require(msg.value >= 1000.0);\n        member[msg.sender] = msg.value;\n    }\n\n    modifier onlyChairman() {\n        require (msg.sender == chairman);\n        _;\n    }\n\n    function unregister(address payable account) public onlyChairman() {\n        // cost 100 wei for unregister fee\n        account.transfer(member[account] -100);\n        delete member[account];\n    }\n\n    // create a record to store the result of new order's hash data, for confidencial purpose\n    function createOrderRequest(uint requestID, bool isExecute, string memory hashData) public{\n        userRequest[requestID] = UserRequest(isExecute, hashData);\n        response(requestID, isExecute);\n    }\n\n    // create a record when airline a transfer a user's order to airline b\n    function request(uint requestID, string memory hashData) public{\n        airlineRequest[requestID] = hashData;\n    }\n\n    // create a record when airline b decide the request from airline a, may be executed or non-executed\n    function response(uint requestID, bool isExecute) public{\n        airlineResponse[requestID] = isExecute;\n    }\n}\n",
  "sourcePath": "/Users/coda/Desktop/election/contracts/Election.sol",
  "compiler": {
    "name": "solc",
    "version": "0.5.0+commit.1d4f565a.Emscripten.clang"
  },
  "schemaVersion": "3.0.8",
  "updatedAt": "2019-04-30T04:59:08.510Z",
  "devdoc": {
    "methods": {}
  },
  "userdoc": {
    "methods": {}
  }
}